:060000000A128A1110280B
:10000800FE00030EF6000408F7000A08F8007F084F
:10001800F9000A128A115F2D0A128A111328831314
:10002800A830FD000630FE006B30FF00A0308400D1
:100038000A128A1133260A128A115F30FD0006302F
:10004800FE000430FF00493084000A128A1133266A
:100058000A128A110A128A1178260A128A11FD00D8
:1000680083160313A801A901AA01AB018312031384
:10007800DF01E001E101E201E301E401E501E6015C
:10008800E701E801E901EA01EB01EC01FA01FB01F2
:10009800FC0183010A128A1151280A128A11422688
:1000A8000A128A110A128A1151260A128A110A1290
:1000B8008A115E260A128A1183120313C7010A12D3
:1000C8008A1173260A128A119E2AC8010E305D060B
:1000D800031D6F2870289E2AE901EA0103306B0688
:1000E800031977287828A528C701C70AA528023048
:1000F80083120313AC004530AB00A930AA00AA0B49
:100108008328AB0B8328AC0B83280030831203139E
:100118006A02643003196902031C932894289D28F5
:10012800C70103306B0603199A289B289D280130C4
:10013800EB000E305D060319A228A328A528C701E5
:10014800AA2847030319A928AA287B28E901EA0154
:1001580084290A128A1173260A128A11023083121C
:100168000313AC004530AB00A930AA00AA0BBA288B
:10017800AB0BBA28AC0BBA2883120313EC0141303D
:1001880083120313AB00ED30AA00AA0BC928AB0BEE
:10019800C928CE28F6285408B0005308AF005208E2
:1001A800AE005108AD00F430A0000130A1002D30A0
:1001B8000A128A1123250A128A11023083120313A4
:1001C8006A02583003196902031CEB28EC28F62848
:1001D8000A128A1173260A128A1183120313C8019C
:1001E800C80A0629831203136C08031DFC28FD287E
:1001F800062917306A02703003196902031C0529A1
:100208000629CF284808031D0A290B2984290A1220
:100218008A119D240A128A1183120313C5000A1237
:100228008A1173260A128A118312031345080319C7
:100238001E291F295929FC30A000FF30A100F430E5
:10024800A2000130A3000A128A11A9220A128A11F7
:10025800831203135008B4004F08B3004E08B200CD
:100268004D08B100D030A0000730A10031300A128B
:100278008A1123250A128A110A128A1173260A1270
:100288008A11033083120313AC008A30AB00553057
:10029800AA00AA0B4D29AB0B4D29AC0B4D29831293
:1002A8000313EC01FF30DE0093294C08B8004B081B
:1002B800B7004A08B6004908B500D030A00007309A
:1002C800A10035300A128A1123250A128A110A124E
:1002D8008A1173260A128A11033083120313AC00A1
:1002E8008A30AB005530AA00AA0B7829AB0B7829C5
:1002F800AC0B782983120313EC01FF30DE00AA2827
:1003080003306B06031D89298A29932917306A024D
:10031800703003196902031C92299329AD280A1227
:100328008A1173260A128A11023083120313AC0051
:100338004530AB00A930AA00AA0BA029AB0BA02915
:10034800AC0BA02983120313E901EA018F2AEC01FF
:10035800413083120313AB00ED30AA00AA0BB22977
:10036800AB0BB229B729D8290030BC000030BB003C
:100378000030BA000030B9000A30A0000030A100F7
:1003880039300A128A1123250A128A11173083126A
:1003980003136A02703003196902031CD429D52992
:1003A800D829C801C80AE829831203136C08031D59
:1003B800DE29DF29E82917306A027030031969023B
:1003C800031CE729E829B8290A128A1173260A1298
:1003D8008A11831203134808031DF329F4298F2A6D
:1003E8000A128A1184230A128A1183120313C6007F
:1003F8000A128A1173260A128A11831203134608F5
:100408000319072A082A542A0430A0000030A10042
:10041800F430A2000130A3000A128A11A9220A129C
:100428008A11033083120313EB0083160313270882
:1004380083120313C00083160313260883120313C1
:10044800BF0083160313250883120313BE00831607
:100458000313240883120313BD00C830A000003022
:10046800A1003D300A128A1123250A128A110A12A4
:100478008A1173260A128A11033083120313AC00FF
:100488008A30AB005530AA00AA0B482AAB0B482A81
:10049800AC0B482A83120313EC01FF30DE009E2ABE
:1004A80083160313230883120313C400831603134C
:1004B800220883120313C30083160313210883122F
:1004C8000313C20083160313200883120313C10009
:1004D800D030A0000730A10041300A128A1123252C
:1004E8000A128A110A128A1173260A128A11033013
:1004F80083120313AC008A30AB005530AA00AA0B54
:10050800832AAB0B832AAC0B832A83120313EC01D7
:10051800FF30DE00A6296B03031D932A942A9E2A26
:1005280017306A02703003196902031C9C2A9D2A3D
:10053800AB299E2A831203136C08031DA42AA52A3B
:10054800692863280A128A1110287B2B6508203E27
:1005580084000A128A1199250A128A110139031D89
:10056800B62ABA2A831203130516BD2A8312031367
:1005780005126508203E84000A128A1199250A127C
:100588008A110239031DC92ACD2A8312031385163D
:10059800D02A8312031385126508203E84000A12AC
:1005A8008A1199250A128A110439031DDC2AE02AC6
:1005B800831203138617E32A83120313861365082D
:1005C800203E84000A128A1199250A128A110839D4
:1005D800031DEF2AF32A831203138717F62A8312BF
:1005E800031387132108803AFF0080307F02031D20
:1005F800FF2A013020020318022B032B0E2B831233
:1006080003136508FF3EE50066080318013EFF3E38
:10061800E600182B831203136508013EE5006608FF
:100628000318013E003EE6006608803AFF0080306D
:100638007F02031D212B043065020318242B252B70
:10064800392B83120313E61B2A2B2B2B302B66081E
:10065800A7006508A600342B0330A6000030A700C9
:100668002708E6002608E5003D2B83120313E50161
:10067800E6012108803AFF0080307F02031D462BE7
:10068800013020020318492B4A2B532B01308312C7
:100698000313A0070318A10A0030A1075B2BFF3042
:1006A80083120313A0070318A10AFF30A107A801AA
:1006B800A901712B413083120313A500ED30A4006A
:1006C800A40B642BA50B642B692B01308312031335
:1006D800A8070318A90A0030A90723082902031D3F
:1006E800772B22082802031C7A2B7B2B5E2B831284
:1006F800031320082104031D822B832BAA2A080038
:1007080083120313A401A40AA60126085F3E8400ED
:10071800FF30831380002608553E8400FF30800098
:100728000130FF007F08A60704302602031C9D2B1A
:100738009E2B892BA501DE2B6C080319A42BA52B56
:10074800A02BEC010E305E060319AB2BAC2BB22BA1
:100758000F305E06031DB12BB22BB32BA40103305F
:10076800A80028085E3E840083130008FF002808BC
:100778005F3E84007F0880002808543E84000008FB
:10078800FF002808553E84007F0880000130A80239
:100798002808031DD02BD12BB52B5E08DF005E087F
:1007A800D5002508203E84005E0880000130FF0047
:1007B8007F08A50704302502031CE32BE42BA02B9C
:1007C800EC01EC2B6C080319EA2BEB2BE62BE42B42
:1007D8000F305E06031DF12BF22BE62B0A128A114D
:1007E80073260A128A1183120313A7012708203ED1
:1007F800840083130008FF002708593E84007F08FF
:1008080080000130FF007F08A70704302702031C7F
:100818000E2C0F2CFA2B24080800F0308316031333
:1008280086000130F3007C0A1B2C0310F30DFF3EF9
:10083800031D192C7308FF3A83120313860008302E
:10084800F300F30B252CF5010130F3007508043E85
:10085800013E302C0310F30DFF3E031D2E2C7308B0
:10086800831203130605031D3A2C3B2C842C0330FA
:10087800F0007C080A128A111A260A128A11143EFC
:10088800750784000A128A1199250A128A11F40040
:1008980074087D060319512C522C5A2C8312031309
:1008A800E701E801FA017408FD009C2C7A08031D91
:1008B8005E2C5F2C682C740883120313DE00013051
:1008C800EC00FA01FA0A9C2C7A03031D6C2C6D2C9F
:1008D8009C2C013083120313E7070318E80A003041
:1008E800E80700306802143003196702031C7D2CE6
:1008F8007E2C832C7408DD000230FA009C2C9C2C82
:100908000130FF007F08F50704307502031C8D2CA9
:100918008E2C282C7C08013E0339FC007C08031D22
:10092800962C972C9C2CFF30FD00E701E801FA017A
:10093800080083120313A501A50AA70127085F3E33
:100948008400FF30831380002708553E8400FF3061
:1009580080000130FF007F08A70704302702031C2E
:10096800B62CB72CA22CA601EA2C6C080319BD2CB6
:10097800BE2CB92CEC010330A90029085E3E840086
:1009880083130008FF0029085F3E84007F08800069
:100998002908543E84000008FF002908553E8400B9
:1009A8007F0880000130A9022908031DDC2CDD2CFA
:1009B800C12C4030DF004030D5002608213E84009D
:1009C8005E0880000130FF007F08A6070430260279
:1009D800031CEF2CF02CB92CEC01F82C6C08031933
:1009E800F62CF72CF22CF02C0F305E06031DFD2C94
:1009F800FE2CF22C0A128A1173260A128A1183120B
:100A08000313A8012808593E840083130008A00096
:100A18002808213E8400000820060319142D152DEE
:100A2800172DA501212D0130FF007F08A8070430EC
:100A38002802031C202D212D062D250808008312CD
:100A48000313A600A401A501542DA7012708260712
:100A5800A2002208840083130008FF002708553EDF
:100A680084007F0880000130FF007F08A70704305A
:100A78002702031C402D412D2A2D213083120313F8
:100A8800A3007530A200A20B472DA30B472D4C2DB8
:100A9800053083120313A4070318A50A0030A5071D
:100AA80021082502031D5A2D20082402031C5D2D50
:100AB8005E2D292D08008B1E622D632D8E2D0B1D9A
:100AC800662D672D8E2D013083120313E907031855
:100AD800EA0A0030EA070A128A11E7250A128A117F
:100AE8008312031363036404031D7B2D7C2D852D62
:100AF8000A128A1111240A128A1183120313E301BC
:100B0800E4010130E3070318E40A0030E4070B119D
:100B18003C3081007908FF0078088A007708840053
:100B2800760E8300FE0E7E0E090005308A0004084A
:100B3800840A820700343F3406345B344F34663409
:100B48006D347D3407347F346F347934503438341D
:100B58005834543440345C3400347334033402342D
:100B680001340634053404340934083407340F34A6
:100B780000340E340134023404340834643400344C
:100B8800F300143073020318CA2DCB2DD52D73082A
:100B9800013E84000A128A1199250A128A11F2006C
:100BA800D72D4030F20072088312031387000130FA
:100BB800F100700AE12D0310F10DFF3E031DDF2D3A
:100BC80071088500080083120313870185017B08DB
:100BD800553E84008313000A0319F32DF42DFF2DCD
:100BE8007B08F0007B08553E840000080A128A1131
:100BF800C4250A128A117B08013E0339FB0008004C
:100C080010340B340B340A340E340A3412340034E2
:100C18000E34003411341134FF34FF34FF34FF3400
:100C2800FF34FF34FF34FF34FF34FF34F200F101A6
:100C3800721C1F2E202E242E7008FF007F08F1073B
:100C48000310F00D0310F20C7208031D2C2E2D2E2C
:100C58001C2E710808007E088A007F0882000A128C
:100C68008A112F260A128A118000840A04087D0638
:100C780003190034FF0A0319FE0A332EF030FF006F
:100C88007F088316031385058701F030FF007F086E
:100C98008312031385058701080083160313811245
:100CA8008111073081043C308312031381008B16B5
:100CB8008B170800831603138713861385120512F2
:100CC8008312031387138613851205120800103444
:100CD8000B340B340A340A3405340C340D348312C3
:0A0CE8000313870185010800FF34A3
:04400E00F32FFF3F4E
:00000001FF
